:020000040000FA
:1000000002EF00F0EC0E0F01D36F8C6A956A190EA7
:10001000AF6EAC94AC98AC9CAC8AAB8EAB9CAB880E
:100020009D8A9E9A9EAA12EF00F0AE50570AD8A45D
:1000300012EF00F033EC00F0480EAD6E33EC00F040
:100040004F0EAD6E33EC00F04C0EAD6E33EC00F0A5
:10005000410EAD6E33EC00F02C0EAD6E33EC00F0C3
:100060009E9A12EF00F0C80E39EF00F0320E39EF11
:1000700000F0216EB40E206E0000202E54EF00F030
:10008000212E3AEF00F012000000000000000A0EDE
:1000900051EF00F0030E51EF00F0030E51EF00F0AE
:1000A000050E216EA50E206E202E54EF00F0212E9D
:1000B00052EF00F01200A40E00006CEF00F0510EA1
:1000C0006CEF00F01F0E6CEF00F00E0E00006CEFF6
:1000D00000F0060E6CEF00F0206E202E6DEF00F0A9
:0600E000120000001200F6
:0200E600000018
:020000040030CA
:0100000000FF
:010001000AF4
:0100020018E5
:010003001EDE
:010005008179
:010006008079
:010008000FE8
:01000900C036
:01000A000FE6
:01000B00E014
:01000C000FE4
:01000D0040B2
:00000001FF
